:020000040800F2
:10000000FF4F0020392100087D2100087D210008D4
:100010007D2100087D2100087D21000800000000EE
:100020000000000000000000000000007D0B000840
:100030007D21000800000000D90B0008250C0008F5
:100040007D2100087D2100087D2100087D21000818
:100050007D2100087D2100087D2100087D21000808
:100060007D2100087D2100087D2100087D210008F8
:100070007D2100087D2100087D2100087D210008E8
:100080007D2100087D2100087D2100087D210008D8
:100090007D2100087D2100087D2100087D210008C8
:1000A0007D2100087D2100087D2100087D210008B8
:1000B0007D2100087D2100087D2100087D210008A8
:1000C0007D2100087D2100087D2100087D21000898
:1000D0007D2100087D2100087D2100087D21000888
:1000E0007D2100087D2100087D210008000000001E
:1000F0000000000000000000000000000000000000
:0C01000000000000000000005FF808F1A3
:1001100008B5094C23694FF4FA7043F40053236186
:1001200001F0F8FC23694FF4FA7043F000532361A7
:1001300001F0F0FCEEE700BF00100140064A01208C
:10014000936943F010039361A2F58032536843F43E
:1001500080135360704700BF00100240EFF3098026
:100160000046704780F309887047EFF30880004627
:10017000704780F308887047EFF31280704780F370
:1001800011887047EFF31080704780F31088704734
:10019000EFF31380704780F313887047EFF31480F8
:1001A000704780F31488704700BA704740BA7047B0
:1001B000C0BA704790FAA0F07047D0E84F0FC0B2B5
:1001C0007047D0E85F0F80B2704750E8000F70476B
:1001D000C1E8430F18467047C1E8530F18467047EF
:1001E00041E8000070470000374B82B01A6842F0C7
:1001F00001021A605968354A0A405A601A6822F0AA
:10020000847222F480321A601A6822F480221A6002
:100210005A6822F4FE025A604FF41F029A600022CC
:10022000009201921A6842F480321A601A6802F44D
:1002300000320192009A01320092019A1AB9009A92
:10024000B2F5A06FF2D11A6812F4003218BF012281
:100250000192019A012A30D11D4A116841F0100122
:100260001160116821F003011160116841F0020171
:1002700011605A685A605A685A605A6842F480623B
:100280005A605A6822F47C125A605A6842F4E812A2
:100290005A601A6842F080721A601A689201FCD59E
:1002A0005A6822F003025A605A6842F002025A6009
:1002B0005A6802F00C02082AFAD14FF00062054B8E
:1002C0009A6002B0704700BF001002400000FFF8C3
:1002D0000020024000ED00E0114A124B516801F08D
:1002E0000C01042901D008290AD00F49196052686D
:1002F000C2F303121A4411791A68CA401A6070478F
:1003000051685068C1F38341C00301F1020102D476
:1003100006484143EAE750688003F9D40248F8E709
:10032000001002400000002000127A0000093D0089
:1003300010B5044600F037FCA46B00F043FCB4FA9F
:1003400084F0400910BD70B51646026C0446856BFA
:1003500062B17EB9406801F013FF6368226C1344F8
:10036000A2686360934201D3236863600135A5638B
:10037000002070BDC06801F003FF236CE2685B429F
:1003800021681A448A42E2603EBFA2689B18E3607B
:10039000022EEBD1002DE9D0013DE7E703461A6CB0
:1003A00010B4084662B1D9689C681144A142D96072
:1003B00028BF196810BC28BFD960D96801F0E0BE19
:1003C00010BC704770B5044600F0EDFB94F8455042
:1003D00004F124066DB2002D14DCFF2384F84530AF
:1003E00000F0F0FB00F0DFFB94F8445004F110063D
:1003F0006DB2002D12DCFF2384F84430BDE870405C
:1004000000F0E0BB636A002BE7D0304601F032FC1D
:1004100008B101F0C7FC013D6DB2DCE72369002B98
:10042000E9D0304601F026FC08B101F0BBFC013DEB
:100430006DB2DEE738B504460D4600F0B4FBD4E9F2
:100440000F3043432268D1181B1A1344A160E360A4
:100450000021FF23A163626084F8443084F84530B2
:1004600095B9236963B104F1100001F003FC38B1C0
:100470004FF08052094B1A60BFF34F8FBFF36F8F5D
:1004800000F0A0FB012038BD04F1100000F0D0FA0C
:1004900004F1240000F0CCFAF2E700BF04ED00E024
:1004A00070B50646484348300D4600F003FB04464D
:1004B00048B155B100F148032360C4E90F6501213B
:1004C0002046FFF7B7FF204670BD0346F4E72DE94D
:1004D000FF47002604468A461F46B046DFF8E490F0
:1004E000019200F060FBA26BE36B9A4201D3022FF2
:1004F00019D13A4651462046FFF725FF636A1BB1E2
:1005000004F1240001F0B6FB38B14FF080522D4BBE
:100510001A60BFF34F8FBFF36F8F00F053FB0120C2
:1005200004B0BDE8F087019D1DB900F04BFB002031
:10053000F6E716B902A801F005FC00F043FB01F054
:10054000D7F900F030FB94F84430FF2B08BF84F853
:10055000448094F84530FF2B08BF84F8458000F0B4
:1005600031FB01A902A801F0F7FB28BB00F01BFB3F
:10057000A26BE36B9A420ED100F024FB019904F1C7
:10058000100001F053FB2046FFF71CFF01F03AFA80
:1005900048B10126A5E700F015FB2046FFF712FF42
:1005A00001F030FAF5E74FF08053C9F80030BFF39F
:1005B0004F8FBFF36F8FECE72046FFF703FF01F08B
:1005C00021FAB4E704ED00E0F8B505461746EFF36D
:1005D00011864FF0BF0282F31188BFF36F8FBFF314
:1005E0004F8F806BEA6B904201D3022B1ED195F89E
:1005F00045401A4664B22846FFF7A5FE631C10D199
:100600006B6A0BB9012009E005F1240001F032FB0F
:100610000028F7D0002FF5D00120386086F311882C
:10062000F8BD013464B285F84540EBE70020F5E7FA
:1006300038B50C46EFF311854FF0BF0383F31188F3
:10064000BFF36F8FBFF34F8F826BC36B93421BD986
:1006500090F8453001325BB282635A1C0FD1436A75
:100660000BB9012008E0243001F004FB0028F8D089
:10067000002CF6D00120206085F3118838BD0133AD
:100680005BB280F84530ECE70020F5E72DE9F04358
:10069000002604468846374685B0DFF8DC90019294
:1006A00000F081FAA56BD5B141462046013DFFF728
:1006B00075FEA563236963B104F1100001F0DAFA55
:1006C00038B14FF080522C4B1A60BFF34F8FBFF3FD
:1006D0006F8F00F077FA012005B0BDE8F083019D2F
:1006E0001DB900F06FFA0020F6E716B902A801F074
:1006F00029FB00F067FA01F0FBF800F054FA94F8D7
:100700004430FF2B08BF84F8447094F84530FF2B29
:1007100008BF84F8457000F055FA01A902A801F05D
:100720001BFBF0B92046FFF703FEA0B1019904F1CD
:10073000240001F07BFA2046FFF744FE01F062F945
:1007400038B94FF08053C9F80030BFF34F8FBFF373
:100750006F8F0126A4E72046FFF734FE01F052F91F
:10076000F7E72046FFF72EFE01F04CF92046FFF791
:10077000DFFD0028EDD0B6E704ED00E02DE9FF41F4
:10078000002604463746DFF8D480019100F00BFACA
:10079000A36BB3B1013BA363236963B104F1100000
:1007A00001F068FA38B14FF080522C4B1A60BFF359
:1007B0004F8FBFF36F8F00F005FA012004B0BDE842
:1007C000F081019D1DB900F0FDF90020F6E716B992
:1007D00002A801F0B7FA00F0F5F901F089F800F08D
:1007E000E2F994F84430FF2B08BF84F8447094F881
:1007F0004530FF2B08BF84F8457000F0E3F901A9EC
:1008000002A801F0A9FAF0B92046FFF791FDA0B1C6
:10081000019904F1240001F009FA2046FFF7D2FD06
:1008200001F0F0F838B94FF08053C8F80030BFF34A
:100830004F8FBFF36F8F0126A8E72046FFF7C2FD59
:1008400001F0E0F8F7E72046FFF7BCFD01F0DAF829
:100850002046FFF76DFD0028EDD0B6E704ED00E07F
:100860002DE9F043002604468846374685B0DFF878
:10087000DC90019200F097F9A36BD3B1414620467A
:10088000E568FFF78BFD636AE56063B104F124005E
:1008900001F0F0F938B14FF080522C4B1A60BFF3E1
:1008A0004F8FBFF36F8F00F08DF9012005B0BDE8C9
:1008B000F083019D1DB900F085F90020F6E716B917
:1008C00002A801F03FFA00F07DF901F011F800F004
:1008D0006AF994F84430FF2B08BF84F8447094F808
:1008E0004530FF2B08BF84F8457000F06BF901A973
:1008F00002A801F031FAF0B92046FFF719FDA0B1C6
:10090000019904F1240001F091F92046FFF75AFD06
:1009100001F078F838B94FF08053C9F80030BFF3D0
:100920004F8FBFF36F8F0126A4E72046FFF74AFDE4
:1009300001F068F8F7E72046FFF744FD01F062F8A0
:100940002046FFF7F5FC0028EDD0B6E704ED00E007
:100950002DE9F04107469046EFF311864FF0BF03B3
:1009600083F31188BFF36F8FBFF34F8F846B0CB38A
:1009700090F84450013C6DB2FFF710FD6B1CBC6356
:1009800013D13B690BB901200BE007F1100001F016
:1009900071F90028F7D0B8F1000FF4D00120C8F8A1
:1009A000000086F31188BDE8F08101356DB287F84B
:1009B0004450E8E72046F4E770B50446EFF31185AC
:1009C0004FF0BF0383F31188BFF36F8FBFF34F8FD7
:1009D000836B3BB1C668FFF7E1FC0120E66085F35D
:1009E000118870BD1846FAE710B5044600F0DBF830
:1009F000A46B00F0E7F8204610BD38B5054600F0BE
:100A0000D2F8A86BEC6B241A00F0DCF8204638BD55
:100A1000806B704700F074B8806BB0FA80F04009CA
:100A20007047836BC06BC31A58425841704700BF70
:100A30004FF0FF3200F108034360C0E90223036175
:100A400000230360704700230361704743689A687E
:100A50004B608A609A68516099600368086101334D
:100A6000036070470A6830B5531C0AD103695A689D
:100A70004A6091608B6059600368086101330360CC
:100A800030BD00F108035C6825689542EFD8234625
:100A9000F9E70369D0E901128A605160596881421F
:100AA00008BF5A60002202611A68013A1A60186889
:100AB0007047000038B5044643071CBF20F0070408
:100AC000083400F015FF0C4B1A681AB90B4A22F0D3
:100AD00007021A6041F2F7715A6814448C4208D830
:100AE000A24206D21D685C60154400F08BFF2846C8
:100AF00038BD0025F9E700BF1800002028000020BD
:100B000070470022014B5A60704700BF1800002058
:100B1000024B5868C0F5BF501830704718000020CD
:100B2000002382B001934FF0BF0383F31188BFF31A
:100B30006F8FBFF34F8F019B002BFCD002B070472B
:100B40005B480068006880F3088862B661B6BFF34E
:100B50004F8FBFF36F8F00DF00BF4FF0807340F8FF
:100B6000043C054B21F0010140F8081C40F80C3C06
:100B700040F8202C40387047210B0008084B1968BA
:100B80000868B0E8F00F80F30988BFF36F8F4FF06B
:100B9000000080F311884EF00D0E7047AFF3008017
:100BA0002C18002070474FF0BF0383F31188BFF368
:100BB0006F8FBFF34F8F024A136801331360704782
:100BC00014000020034A1368013B13600BB983F340
:100BD0001188704714000020EFF30980BFF36F8F76
:100BE0000F4B1A6820E9F00F10602DE908404FF014
:100BF000BF0080F3118800F0A5FF4FF0000080F3E4
:100C00001188BDE8084019680868B0E8F00F80F363
:100C10000988BFF36F8F7047AFF30080AFF3008098
:100C20002C18002008B54FF0BF0383F31188BFF3E1
:100C30006F8FBFF34F8F00F07FFE18B14FF08052DF
:100C4000024B1A60002383F3118808BD04ED00E015
:100C50000022054B05491A600A60054A05491160E2
:100C600007221A60704700BF10E000E018E000E0C3
:100C700014E000E03F19010010B500240A4B1A6887
:100C800042F47F021A601A6842F07F421A60FFF74E
:100C9000DFFF064B1C60FFF753FF00F053FFFFF729
:100CA0003FFF204610BD00BF20ED00E014000020F3
:100CB00008ED00E08268436800681344181A824215
:100CC00098BF801A70472DE9F0414468856817463F
:100CD0002D1B954228BF1546064680692A462044AA
:100CE000884601F04DFAAF4205D97A1B08EB0501A1
:100CF000B06901F045FAB2683C44A24298BFA41A18
:100D000074603846BDE8F0819A4228BF1A462DE942
:100D1000F041074688461646CAB10468856881696D
:100D20002D1B954228BF154621442A46404601F016
:100D300027FAAE4205D9721BB96908EB050001F02C
:100D40001FFABB683444A34298BFE41A3C603046A3
:100D5000BDE8F081F8B50F1E054600F121001646EA
:100D600008BF0127FFF7A6FE044668B12022002134
:100D700001F094FA04F12003A3610135731E5E4271
:100D8000C4E902575E4126772046F8BD037F9B07E2
:100D900001D4FFF7B5BE2022002101F07FBA2DE972
:100DA000F0410446FFF7FFFE2069A8B96169A9B9BF
:100DB000D4E90276D4F81880257F2046202201F05D
:100DC0006DFAC4F81880C4E9027625770124FFF78C
:100DD000F9FE2046BDE8F0810024F8E70446F6E776
:100DE000002908BF012183688B4226BFC160012012
:100DF00000207047826803684168D0180138401AA3
:100E0000824298BF801A704754E72DE9F043164696
:100E100087B00193037F0446DA07019B88464CBFE5
:100E2000371D374653B92046FFF7E4FF05460396C2
:100E30006DBB0025284607B0BDE8F08304A800F08C
:100E400071FF4FF00009FFF7AEFE2046FFF7D2FF1B
:100E50008742054618D9002001F03AF900F0AAFFB0
:100E60006061FFF7AFFE0022019B1146104600F0C3
:100E7000F5FFC4F8149001A904A800F06DFF002844
:100E8000E1D0002DCFD0D2E7FFF79CFEF9E7237F1A
:100E9000DB0720D4B54294BF03950396039A4146DD
:100EA0002046FFF710FF05460028C3D02046FFF775
:100EB00001FFE3689842BDD300F01AFD23693BB1FE
:100EC000002320691A46194601F00CF8002323611B
:100ED00000F098FDAEE7BD42ABD3042203A9204643
:100EE000FFF7F1FEDAE72DE9FF4115461F46037FC4
:100EF0000446DA0788464CBF2E1D2E46FFF77AFFC0
:100F0000039520B90025284604B0BDE8F081237F71
:100F1000DB0729D4854294BF03950390039A414689
:100F20002046FFF7D0FE05460028ECD02046FFF70C
:100F3000C1FEE3689842E6D3EFF311864FF0BF039A
:100F400083F31188BFF36F8FBFF34F8F236943B1D2
:100F5000002320691A461946009701F015F800236E
:100F6000236186F31188CEE78642CBD8042203A9F9
:100F70002046FFF7A8FED1E72DE9F7431746027F89
:100F8000044612F0010F894614BF04260026984635
:100F9000D3B1FFF708FE2046FFF78CFE86420546D8
:100FA00005D3002001F094F800F004FF2061FFF762
:100FB00009FEAE4212D3002243461146104600F00D
:100FC0004DFF002320462361FFF774FEB042054623
:100FD00004D80025284603B0BDE8F0837EB12B4637
:100FE000324601A92046D4F80080FFF78DFE019B10
:100FF000AD1B9F4236BF00271F46C4F800802B461A
:101000003A4649462046FFF77FFE05460028E0D0D5
:1010100000F06EFC63693BB1002360691A46194613
:1010200000F060FF0023636100F0ECFCD2E737B50D
:10103000037F0446DB0702D4002003B030BDFFF776
:1010400039FE04280346F7D9042225680DEB020176
:101050002046FFF759FE01982560EEE72DE9FF478E
:101060009846037F044613F0010F14BF042700279E
:1010700089461646FFF71EFE8742054604D3002523
:10108000284604B0BDE8F0877FB103463A4603A97D
:101090002046D4F800A0FFF737FE039BED1B9E42CD
:1010A00036BF00261E46C4F800A02B4632464946ED
:1010B0002046FFF729FE05460028E0D0EFF3118611
:1010C0004FF0BF0383F31188BFF36F8FBFF34F8FD0
:1010D00063694BB1002360691A461946CDF8008058
:1010E00000F052FF0023636186F31188C8E70368AC
:1010F0004068C31A58425841704710B5037F13F037
:10110000010F14BF04240024FFF774FEA0428CBF1B
:101110000020012010BD37B50446EFF311854FF0D4
:10112000BF0383F31188BFF36F8FBFF34F8F006945
:1011300048B1002300911A461946206900F024FFA7
:1011400000230120236185F3118803B030BD37B53A
:101150000446EFF311854FF0BF0383F31188BFF30B
:101160006F8FBFF34F8F406948B1002300911A463B
:101170001946606900F008FF00230120636185F3D0
:10118000118803B030BD000010B51820FFF792FCA5
:10119000044620B1002340F8043BFFF749FC2046F9
:1011A00010BD2DE9F84306460D4699469046089F26
:1011B00000F09EFB346804EA0503B9F1000F13D177
:1011C000A3B9D7B1B8F1000F0CBF00214FF0807167
:1011D000B9F1000F01D041F080613A462943301D3A
:1011E00000F034FD002408E09D42EAD1B8F1000F80
:1011F00024D0002724EA0503336000F003FCD7B1B4
:1012000038B94FF08052134B1A60BFF34F8FBFF3C2
:101210006F8F00F0E5FD830104460AD4FFF7C3FC9D
:10122000346805EA0403B9F1000F09D153B9FFF797
:10123000C9FC24F07F442046BDE8F8834746DCE73C
:101240009D42F4D1B8F1000FF1D024EA05053560D4
:10125000EDE700BF04ED00E070B506460C46FFF771
:10126000A2FC356825EA04043460FFF7ABFC28468D
:1012700070BDEFF311834FF0BF0282F31188BFF30B
:101280006F8FBFF34F8F006883F3118870472DE98C
:10129000F04104460D4600F10C0600F029FB2368DE
:1012A00020692B4300252360B042216807D121EA41
:1012B0000501216000F0A6FB2068BDE8F081D0E9BF
:1012C000002822F07F4312F0806F03EA010702D169
:1012D0001FB94046E8E7BB42FBD1D20141F00071A3
:1012E00048BF1D4300F0F6FCF3E72DE9F041054649
:1012F000884616461F4600F0FBFA2C6841462846F1
:1013000044EA0804FFF7C3FF36EA040325D10027A7
:101310002B6823EA06032B6000F074FBD7B138B9C1
:101320004FF08052124B1A60BFF34F8FBFF36F8F95
:1013300000F056FD830104460AD4FFF734FC2C6804
:1013400036EA040304BF24EA06062E60FFF73AFCDF
:1013500024F07F442046BDE8F0813FB13A4646F094
:10136000A061281D00F072FC0024D5E72C68D3E7AB
:1013700004ED00E010B5044600F0BAFA636833B932
:101380002046FFF7BDFBBDE8104000F03BBB4FF02F
:101390000071206900F09EFCF0E7FFF778BFFFF7CF
:1013A0005BBF00BF064B1A6812681AB94FF0FF32D4
:1013B0005A6070471A68D268D2685268F8E700BF6E
:1013C000201800202DE9F0410746154E8846B568E3
:1013D000F06834460430FFF75CFB7B1C0AD1B8F19F
:1013E000000F07D0F16806F110000431BDE8F041AC
:1013F000FFF72CBBE368ED195D6006D3606AE16816
:10140000BDE8F0410431FFF72DBB2068E1680431ED
:10141000FFF728FB6368AB4288BF6560BDE8F081D9
:101420002018002080B54FF08057114C114E236CCE
:1014300043B9636C012BFAD93760BFF34F8FBFF309
:101440006F8FF4E7FFF7AFFB636BDD68281DFFF7D5
:1014500020FBE36B013BE363236C013B2364FFF759
:10146000B1FB286BFFF74CFB2846FFF749FBDEE793
:101470002018002004ED00E02DE9F84F4FEA820B20
:10148000814658460E469A46DDF82C80FFF712FB3F
:10149000044660B14C20FFF70DFB054620B1046304
:1014A0004EB980F8346014E02046FFF729FB4FF076
:1014B000FF30BDE8F88F731E00F134020F3613F8C9
:1014C000011F02F8011B09B19E42F8D1002385F8E3
:1014D00043300A9E2F1D042E28BF04263846EE6294
:1014E000FFF7B1FA05F11800FFF7ADFA0023ABF1F1
:1014F0000400C6F1050620446B642D61AE616D6287
:1015000085F848305246494620F00700FFF725FB92
:101510002860B8F1000F01D0C8F80050364CFFF732
:1015200042FBE36B04F144060133E363E368002B01
:1015300056D1E560E36B012B2CD13046FFF778FAEA
:1015400004F15800FFF774FA04F16C00FFF770FA29
:1015500004F18000FFF76CFA04F1A80904F194008B
:10156000FFF766FA04F1BC084846FFF761FA404607
:10157000FFF75EFA04F1D000FFF75AFA04F12800F1
:10158000FFF756FA04F11000FFF752FAC4F8009082
:10159000C4F824801420D4F8E830D4F8EC200133C7
:1015A000C4F8E830EB6A3946934200FB036088BF19
:1015B000C4F8EC30FFF74AFAFFF704FBD4F8E43044
:1015C00063B1E368DA6AEB6A9A4207D24FF080525D
:1015D0000A4B1A60BFF34F8FBFF36F8F012068E78C
:1015E000D4F8E430002BD5D1E368DA6AEB6A9A428A
:1015F00098BFE560CEE700BF2018002004ED00E0B2
:1016000070B505461D4CFFF7CEFA05B9E5682E1DED
:101610003046FFF73EFAAB6A1BB105F11800FFF741
:1016200038FAD4F8E8300133C4F8E830E368AB4264
:1016300017D131461248FFF709FA236C01332364AE
:10164000FFF7C0FAD4F8E43053B1E368AB4207D1F6
:101650004FF080520B4B1A60BFF34F8FBFF36F8F69
:1016600070BDE36B286B013BE363FFF749FA284643
:10167000FFF746FAFFF796FEE2E700BF20180020CA
:101680004818002004ED00E010B50446FFF78BFA7F
:101690000CB9034BDC68E46AFFF794FA204610BDEE
:1016A00020180020EFF311834FF0BF0282F311885E
:1016B000BFF36F8FBFF34F8F08B9034AD068C06A7A
:1016C00083F31188704700BF2018002004292DE9FA
:1016D000F04128BF042104460E46FFF764FA0CB916
:1016E000224BDC68E36AB34234D0204F36D2FA682A
:1016F000A24238D0FA68D56AB5428CBF00250125D0
:10170000A269E662002A4FF01402A4BFC6F10506E2
:10171000A661174E02FB036362699A4211D104F17C
:1017200004084046FFF7B5F91420E36AD7F8EC2027
:101730004146934200FB036088BFC7F8EC30FFF7D7
:1017400085F93DB14FF080520A4B1A60BFF34F8FBD
:10175000BFF36F8FBDE8F041FFF734BAFD682A1B75
:1017600055425541CCE70025CAE700BF20180020AC
:101770006418002004ED00E070B51B4C0646E368D9
:10178000834230D078B3FFF70EFA726904F1100388
:101790009A4224D1B36A04F1D00293421FD0F3B924
:1017A000351D2846FFF775F91420F36AD4F8EC20AC
:1017B000294693420D4A88BFC4F8EC3000FB032051
:1017C000FFF744F9E368F26ADB6A9A4207D34FF005
:1017D0008052074B1A60BFF34F8FBFF36F8FBDE886
:1017E0007040FFF7EFB970BD20180020641800208A
:1017F00004ED00E02DE9F0410546EFF311874FF0CD
:10180000BF0383F31188BFF36F8FBFF34F8F194E60
:10181000426906F110039A422AD1846A06F1D00087
:10182000844225D024BBD6F8F030F3B9F368EC6AD3
:10183000DB6A05F104089C42404634BF00240124C1
:10184000FFF727F914204146EB6AD6F8EC209342C3
:10185000094A88BFC6F8EC3000FB0320FFF7F6F812
:1018600087F311882046BDE8F08105F11801F5E7FE
:101870000024F5E7201800206418002037B5002563
:10188000104C009504F1F403019320222B460E49DD
:101890000E48FFF7F1FD012812D14FF0BF0383F38B
:1018A0001188BFF36F8FBFF34F8F4FF0FF3363602B
:1018B000C4F8E400A56003B0BDE83040FFF7DCB930
:1018C00003B030BD20180020BE23000825140008F6
:1018D0004FF0BF0383F31188BFF36F8FBFF34F8FB8
:1018E0000022024BC3F8E420FFF75CB92018002067
:1018F000034AD2F8F0300133C2F8F030704700BF2D
:1019000020180020014B9868704700BF2018002065
:10191000014B9868704700BF20180020014BD86B1E
:10192000704700BF2018002008B9024BD868343037
:10193000704700BF201800202DE9F0472F4CD4F845
:10194000F030002B52D1A7680137A76057B9236840
:10195000626A22606362D4F8F8300133C4F8F83068
:10196000FFF720FD63680025BB4210D91422E3680D
:10197000DB6A02FB03435B6C022B28BF0125D4F812
:101980000031002B0CBF28460120BDE8F0874FF046
:10199000140ADFF86C9023681B681BB94FF0FF3303
:1019A0006360E3E72368DB68DE6873689F42F7D310
:1019B00006F104084046FFF76CF8B36A1BB106F164
:1019C0001800FFF766F8F06AD4F8EC304146984208
:1019D00088BFC4F8EC000AFB0090FFF737F8E36813
:1019E000F26ADB6A9A4228BF0125D4E7D4F8FC30BA
:1019F00000250133C4F8FC30C1E700BF20180020E7
:101A0000641800202DE9F8432D4CFFF7CCF8D4F8EA
:101A1000F030013BC4F8F030D4F8F0502DB1002480
:101A2000FFF7D0F82046BDE8F883E36B002BF6D033
:101A300004F144074FF014084FF001091DE0D4F8F9
:101A4000DC30DD682E1D05F11800FFF722F8304666
:101A5000FFF71FF8E86AD4F8EC303146984288BFA7
:101A6000C4F8EC0008FB0070FEF7F0FFE368EA6AD8
:101A7000DB6A9A4201D3C4F80091D4F8D030002B2D
:101A8000DDD10DB1FFF78EFCD4F8FC504DB101262D
:101A9000FFF752FF08B1C4F80061013DF8D1C4F866
:101AA000FC50D4F80031002BB9D04FF08052054BD8
:101AB0001A60BFF34F8FBFF36F8F0124B0E700BFF1
:101AC0002018002004ED00E010B5FFF711FF0F4BC8
:101AD00004689A6863182CBF0121002194420360B6
:101AE0000CD961B9FFF78EFF38B94FF08052084B1F
:101AF0001A60BFF34F8FBFF36F8F10BD09B99A42C1
:101B0000F0D20021981AFFF75DFCEBE720180020C7
:101B100004ED00E008B540B94FF08052084B1A6060
:101B2000BFF34F8FBFF36F8F08BDFFF7E1FE0021BA
:101B3000FFF748FCFFF766FF0028EDD0F4E700BF91
:101B400004ED00E0144A30B5D2F8F010134619B194
:101B50000123C2F8003130BD1425C2F80011D2F8BB
:101B6000EC2005FB02F019184C6C94B18C6C0B4DF9
:101B700064682844844208BF60688C6408BF886435
:101B8000142101FB0231896CC968D960C3F8EC20CB
:101B9000E1E7013AE5E700BF201800206C180020BB
:101BA00070B504461E4DFEF7FEFF04B9EC68261D15
:101BB0003046FEF76EFFA36A1BB104F11800FEF772
:101BC00068FF31461748FEF741FF94F84830012B73
:101BD00004BF002384F84830FEF7F4FFD5F8E43062
:101BE0002BB1FEF7E0FFFFF7DDFBFEF7EBFFEB6845
:101BF000A3420AD1D5F8E43043B14FF080520A4BEA
:101C00001A60BFF34F8FBFF36F8F70BD2969EA6B06
:101C1000914201D1EB60F8E7BDE87040FFF792BF59
:101C2000201800203018002004ED00E010B50C460C
:101C3000054BD9681831FEF715FF2046BDE8104066
:101C40000121FFF7BFBB00BF2018002010B51446CC
:101C5000074B41F00041DA689161D9681831FEF70D
:101C6000F5FE2046BDE810400121FFF7ABBB00BFE9
:101C700020180020C36870B5DE68144C06F1180502
:101C80002846FEF706FFD4F8F030DBB9351D2846AC
:101C9000FEF7FFFE14202946F36AD4F8EC209342A5
:101CA0000B4A88BFC4F8EC3000FB0320FEF7CEFEE1
:101CB000E368F26ADB6A9A428ABF01200020C4F816
:101CC000000170BD294604F1D000EFE72018002084
:101CD0006418002070B5C56841F0004101602E1DF8
:101CE000FEF7D7FE3046FEF7D4FE14200B4CEB6A0D
:101CF000D4F8EC2031469342094A88BFC4F8EC304E
:101D000000FB0320FEF7A2FEE368EA6ADB6A9A4260
:101D100084BF0123C4F8003170BD00BF201800202B
:101D20006418002010B50446FEF73DFF044BD3F8BD
:101D3000F8209B6822606360BDE81040FEF742BF58
:101D400020180020034BD3F8F8209B680260436002
:101D5000704700BF2018002070B50C460546FEF7FE
:101D600022FF23680E485A1C816810D0D0F8F80072
:101D70002E686A68864201D08A420FD9881A834247
:101D80000AD95B1A134423602846FFF7DBFF0024BF
:101D9000FEF718FF204670BD002323600124F7E7FB
:101DA000201800200122024BC3F80021704700BF19
:101DB00020180020014BD868704700BF2018002071
:101DC000064BD3F8E42032B1D3F8F030002B0CBF2F
:101DD0000220002070470120704700BF201800201B
:101DE000044BDA68D9689069DA68CB6AC3F10503F5
:101DF000936170472018002070B5164C06460D46BA
:101E0000FEF7D1FEE3685B6C7BB90121E36883F8E0
:101E1000481055B12846FFF7D5FA4FF080520E4BC7
:101E20001A60BFF34F8FBFF36F8FFEF7CBFEFEF745
:101E3000BAFEE3685D6C1DB1E3684EB100225A64DE
:101E40000022E36883F84820FEF7BCFE284670BDF8
:101E50006A1EF4E72018002004ED00E02DE9F041AF
:101E60001E4C1E4680460F461546FEF79CFEE36854
:101E700093F84830022B14D00121E3685A6C22EA0F
:101E800008025A64E36883F8481056B13046FFF7F9
:101E900099FA4FF08052124B1A60BFF34F8FBFF385
:101EA0006F8FFEF78FFEFEF77EFE15B1E3685B6C69
:101EB0002B60E368002293F84830022B09BF01250C
:101EC0000025E368596C04BFB9435964E36883F89B
:101ED0004820FEF777FE2846BDE8F0812018002054
:101EE00004ED00E0F8B51F4604460E461546FEF721
:101EF0005AFE0FB1636C3B60022294F8483084F8BC
:101F000048206A1EDBB2032A06D8DFE802F0020C82
:101F10001210616C31436164012B0CD00124FEF777
:101F200051FE2046F8BD626C01326264F4E7022B78
:101F300022D06664F0E7261D3046FEF7AAFD142085
:101F40000E4DE36AD5F8EC20314693420C4A88BF27
:101F5000C5F8EC3000FB0320FEF778FDEB68E26A81
:101F6000DB6A9A42DAD94FF08052064B1A60BFF30F
:101F70004F8FBFF36F8FD1E70024D0E720180020E8
:101F80006418002004ED00E02DE9F041069F0446AE
:101F9000EFF311864FF0BF0080F31188BFF36F8F0E
:101FA000BFF34F8F0BB1606C1860022094F848307B
:101FB000013ADBB284F84800032A0AD8DFE802F0CD
:101FC00002060410626C1143616402E0626C01322B
:101FD0006264012B08D0012086F31188BDE8F081EE
:101FE000022BF1D10020F7E7134DD5F8F030EBB913
:101FF00004F104084046FEF74CFD14204146E36A14
:10200000D5F8EC2093420D4A88BFC5F8EC3000FBB0
:102010000320FEF71BFDEB68E26ADB6A9A42DAD91D
:10202000012307B13B60C5F80031D4E704F1180182
:1020300005F1D000EDE700BF201800206418002053
:102040002DE9F04180460D46EFF311874FF0BF03B5
:1020500083F31188BFF36F8FBFF34F8F022390F884
:10206000482080F84830436C012A03F1010343649F
:1020700021D1154CD4F8F0300BBB061D3046FEF7CD
:1020800008FD14203146D8F82C30D4F8EC209342C7
:102090000E4A88BFC4F8EC3000FB0320FEF7D6FCE4
:1020A000E368D8F82C20DB6A9A4204D9012305B1F1
:1020B0002B60C4F8003187F31188BDE8F08100F18E
:1020C000180104F1D000E9E720180020641800206E
:1020D00038B5054608B9084BDD680024FEF763FDF6
:1020E00095F84830022B04BF85F848400124FEF7DC
:1020F00069FD204638BD00BF20180020C423000819
:1021000000000020180000201800002024190020E2
:1021100007B5FEF713F8012200230549CDE9002396
:1021200004482022FFF7A8F9FFF7A8FBFEE700BF4D
:10213000B423000811010008002103E00A4B5B589A
:102140004350043109480A4B42189A42F6D3094ACF
:1021500002E0002342F8043B074B9A42F9D3FEF712
:1021600043F8FFF7D5FF7047C423000800000020A4
:10217000180000201800002024190020FEE70000AD
:102180000F0052E33500009A013080E1030013E3B1
:102190003E00001AF0412DE9108042E22882A0E1C1
:1021A000207081E2087287E0103081E210C080E286
:1021B000106013E50C5013E5104013E9103083E272
:1021C000070053E110600CE50C500CE510400CE9E1
:1021D00010C08CE2F5FFFF1A01C088E20CC2A0E13A
:1021E0000C0012E30FE002E20C1081E00E20A001CF
:1021F0000CC080E00D00000A0140A0E104E04EE2C6
:102200002EE1A0E10E618CE004304CE2045094E435
:102210000450A3E5060053E1FBFFFF1A01E08EE244
:102220000EE1A0E10EC08CE00E1081E0032002E27E
:10223000000052E3012042E20120821202308110AC
:1022400001204C120300000A01C0D1E4030051E157
:1022500001C0E2E5FBFFFF1AF041BDE81EFF2FE1E0
:10226000000052E300C0A0E1012042E21EFF2F0166
:10227000012082E2023081E001204CE201C0D1E481
:10228000030051E101C0E2E5FBFFFF1A1EFF2FE151
:10229000012042E200C0A0E1F4FFFFEA030010E3E6
:1022A0003F00000A000052E3012042E21EFF2F011E
:1022B000FFC001E20030A0E1020000EA012042E29A
:1022C000010072E31EFF2F0101C0C3E4030013E30A
:1022D000F9FFFF1A030052E32700009A30402DE96E
:1022E000FFE001E20EE48EE10F0052E30EE88EE122
:1022F0002D00009A104042E22442A0E1205083E2E7
:10230000045285E010C083E210E00CE50CE00CE51F
:1023100008E00CE504E00CE510C08CE205005CE18F
:10232000F8FFFF1A01C084E20C0012E30CC283E044
:102330000F2002E21800000A043042E20330C3E337
:10234000043083E203308CE004E08CE40C0053E1C1
:10235000FCFFFF1A032002E2000052E30400000A1F
:10236000FF1001E2022083E00110C3E4030052E108
:10237000FCFFFF1A3040BDE81EFF2FE1000052E3D2
:102380001EFF2F01FF1001E2022083E00110C3E4D1
:10239000030052E1FCFFFF1A1EFF2FE10C30A0E109
:1023A000ECFFFFEA0030A0E1C9FFFFEA03C0A0E1B3
:0423B000E0FFFFEA61
:1023B4004C45445F424C494E4B0049444C45000057
:1023C40000A24A040000000000000000010203040F
:0823D40006070809AAAAAAAA3B
:040000050800213995
:00000001FF
